:1000000071C00000CEC1000008C2000082C0000024
:1000100080C000007EC000007CC000007AC00000EC
:1000200078C0000076C0000074C0000072C00000FC
:1000300070C000006EC000006CC000006AC000000C
:1000400068C0000066C0000064C0000062C000001C
:1000500060C000005EC000005CC000005AC000002C
:1000600058C0000056C0000054C0000052C000003C
:1000700050C000004EC000004CC000004AC000004C
:1000800048C0000046C0000044C0000042C000005C
:1000900040C000003EC000003CC000003AC000006C
:1000A00038C0000036C0000034C0000032C000007C
:1000B00030C000002EC000002CC000002AC000008C
:1000C00028C0000026C0000024C0000022C000009C
:1000D00020C000001EC000001CC000001AC00000AC
:1000E00018C0000011241FBECFEFD1E2DEBFCDBF8C
:1000F00000E00CBF12E0A0E0B2E0E0E3F5E000E0D9
:100100000BBF02C007900D92AE32B107D9F7A7D14D
:100110000DC276CFE8E0F1E082E080832FE78AE14C
:1001200096E0215080409040E1F700C0000010822E
:100130000895E8E0F1E088E080832FE78AE196E027
:10014000215080409040E1F700C0000084E08083AF
:10015000108287EA91E60197F1F700C00000089548
:1001600081B3846081BB85EA9EE00197F1F700C00E
:10017000000081B38B7F81BB85EA9EE00197F1F798
:1001800000C000000895CF93C82FEADF81B38E7FAF
:1001900081BB81EE94E00197F1F700C0000081B3CC
:1001A0008D7F81BBC0930201DBDFCF91089585EA8B
:1001B0009EE00197F1F700C0000088E3E4DF81E0F2
:1001C000E2DF8FE0E0DF86E0DECF0895CF93C82F37
:1001D000C7DF81B3816081BB81EE94E00197F1F7C5
:1001E00000C0000081B38D7F81BBC0930201B8DFE6
:1001F000CF910895109208018FE0809304018FEF52
:10020000809305018FEF80930201E5E0F1E08083A8
:100210008081877F80838091030184FD02C089DF14
:1002200015C08091030185FD0FC087EA91E6019713
:10023000F1F700C0000081E3C9DF87EA91E601978A
:10024000F1F700C0000002C080910301E5E0F1E099
:100250008FEF808380818B7F80838091030184FF77
:100260000AC08091030185FD04C085E090E052DF63
:1002700002C080910301E5E0F1E08FEF808380818F
:100280008D7F80838091030184FF05C080910301ED
:1002900085FD80910301E5E0F1E08FEF80838081AF
:1002A0008E7F80838091030184FFACCF8091030116
:1002B00085FFA8CF80910301A5CF85B1816085B965
:1002C00081EE94E00197F1F700C0000085B18E7FC8
:1002D00085B981EE94E00197F1F700C00000089520
:1002E000CF93C82FEADF85B18B7F85B981EE94E08B
:1002F0000197F1F700C0000085B18D7F85B9C2B9C3
:10030000DCDFCF91089585EA9EE00197F1F700C008
:10031000000088E3E5DF81E0E3DF8FE0E1DF86E0F6
:10032000DFCF089581E0DCDF83EF91E00197F1F703
:1003300000C0000082E0D4DF83EF91E00197F1F785
:1003400000C000000895CF93C82FB7DF85B1846047
:1003500085B981EE94E00197F1F700C0000085B106
:100360008D7F85B9C2B9A9DFCF9108950F931F93EF
:10037000CF93DF938C01C0E0D0E008C0E4DF83ECD2
:1003800099E00197F1F700C000002196F801EC0F09
:10039000FD1F80818111F2CFDF91CF911F910F91CD
:1003A00008951F920F920FB60F9211240BB60F9261
:1003B0002F933F934F935F936F937F938F939F936D
:1003C000AF93BF93EF93FF9383ED90E30197F1F722
:1003D00000C000008FEF88B99FE72AE186E09150C6
:1003E00020408040E1F700C0000018B89BDF80E0AB
:1003F00092E0BCDFFF91EF91BF91AF919F918F9100
:100400007F916F915F914F913F912F910F900BBE14
:100410000F900FBE0F901F9018951F920F920FB65E
:100420000F9211242F938F939F9383ED90E3019765
:10043000F1F700C000008FEF88B99FE32DE083E063
:10044000915020408040E1F700C0000018B89F9113
:100450008F912F910F900FBE0F901F9018958FEFD7
:1004600080BB809301011AB881B984B99FE0909351
:1004700004018093070187B978949DB393609DBB75
:10048000E9E6F0E090819A609083809305011092F4
:1004900008011BB818B837DF8ADE06D018D08CE008
:1004A00092E064DFA7DEFECF1092C50083E3809365
:1004B000C40088E18093C10086E08093C200089563
:1004C0009091C00095FFFCCF8093C60008950F93D4
:1004D0001F93CF93DF93CDB7DEB76E970FB6F89427
:1004E000DEBF0FBECDBF8EE1E0E1F2E0DE0111968E
:1004F00001900D928A95E1F700E010E003C0E0DF83
:100500000F5F1F4FE1E0F0E0EC0FFD1FE00FF11F68
:1005100080818111F4CF6E960FB6F894DEBF0FBEC6
:10052000CDBFDF91CF911F910F910895F894FFCF28
:1005300043617220617420476174650068657900C9
:1005400048656C6C6F0A77616777616E0A6E6967E0
:0E05500067610A746869730A6372617A7900E0
:00000001FF
