:1000000071C000002BC2000065C2000082C0000069
:1000100080C000007EC000007CC000007AC00000EC
:1000200078C0000076C0000074C0000072C00000FC
:1000300070C000006EC000006CC000006AC000000C
:1000400068C0000066C0000064C0000062C000001C
:1000500060C000005EC000005CC000005AC000002C
:1000600058C0000056C0000054C0000052C000003C
:1000700050C000004EC000004CC000004AC000004C
:1000800048C0000046C0000044C0000042C000005C
:1000900040C000003EC000003CC000003AC000006C
:1000A00038C0000036C0000034C0000032C000007C
:1000B00030C000002EC000002CC000002AC000008C
:1000C00028C0000026C0000024C0000022C000009C
:1000D00020C000001EC000001CC000001AC00000AC
:1000E00018C0000011241FBECFEFD1E2DEBFCDBF8C
:1000F00000E00CBF12E0A0E0B2E0ECE9F6E000E0C6
:100100000BBF02C007900D92A23CB107D9F704D2F1
:10011000C3C276CFF999FECF92BD81BD60BD8FB3CA
:1001200084608FBB8FB382608FBB0895F999FECF37
:1001300092BD81BD8FB381608FBB80B50895FF9262
:100140000F931F93CF93DF938C01EB01F12C09C028
:10015000FE01E80FF91F608170E0800F911FDADF68
:10016000F3948F2D90E0FE0101900020E9F7319784
:10017000EC1BFD0B8E179F0758F360E070E0CF017A
:10018000800F911FC7DFDF91CF911F910F91FF90DB
:1001900008950F931F93CF93DF938C01C0E0D0E0BD
:1001A000CE01800F911FC2DF882311F02196F8CF76
:1001B00080E090E0DF91CF911F910F910895E8E0EA
:1001C000F1E082E080832FE78AE196E021508040D1
:1001D0009040E1F700C0000010820895E8E0F1E0EF
:1001E00088E080832FE78AE196E0215080409040AC
:1001F000E1F700C0000084E08083108287EA91E686
:100200000197F1F700C00000089581B3846081BBBD
:1002100085EA9EE00197F1F700C0000081B38B7F73
:1002200081BB85EA9EE00197F1F700C000000895C8
:10023000CF93C82FEADF81B38E7F81BB81EE94E03C
:100240000197F1F700C0000081B38D7F81BBC0939F
:100250000201DBDFCF91089585EA9EE00197F1F777
:1002600000C0000088E3E4DF81E0E2DF8FE0E0DF50
:1002700086E0DECF089591B3916091BBE1EEF4E0AA
:100280003197F1F700C0000091B39D7F91BB80933F
:100290000201BBCF0895109208018FE08093040102
:1002A0008FEF809305018FEF80930201E5E0F1E08D
:1002B00080838081877F80838091030184FD02C0D9
:1002C0008DDF25C08091030185FD0FC087EA91E68F
:1002D0000197F1F700C0000081E3CDDF87EA91E6E6
:1002E0000197F1F700C0000012C08091030186FD64
:1002F0000EC087EA91E60197F1F700C0000081E6A1
:10030000BADF87EA91E60197F1F700C00000E5E067
:10031000F1E08FEF808380818B7F80838091030168
:1003200084FF0AC08091030185FD04C085E090E050
:1003300046DF02C080910301E5E0F1E08FEF8083AA
:1003400080818D7F80838091030184FF05C080912F
:10035000030185FD80910301E5E0F1E08FEF8083EB
:1003600080818E7F80838091030184FF9CCF809168
:10037000030185FF98CF8091030195CF85B18160FE
:1003800085B983EC99E00197F1F700C0000085B1D1
:100390008E7F85B983EC99E00197F1F700C00000EA
:1003A0000895CF93C82FEADF85B18B7F85B981EEA1
:1003B00094E00197F1F700C0000085B18D7F85B909
:1003C000C2B9DCDFCF91089585EA9EE00197F1F78D
:1003D00000C0000088E3E5DF81E0E3DF8FE0E1DFDC
:1003E00086E0DFCF089581E0DCDF83EF91E00197C5
:1003F000F1F700C0000082E0D4DF83EF91E00197C5
:10040000F1F700C00000089595B1946095B9E1EE50
:10041000F4E03197F1F700C0000095B19D7F95B9E8
:1004200082B9ACCF08950F931F93CF93DF938C01C4
:10043000C0E0D0E008C0E8DF87EA91E60197F1F775
:1004400000C000002196F801EC0FFD1F8081811192
:10045000F2CFDF91CF911F910F9108951F920F92CC
:100460000FB60F9211240BB60F922F933F934F9319
:100470005F936F937F938F939F93AF93BF93EF930C
:10048000FF9383ED90E30197F1F700C000008FEF39
:1004900088B99FE72AE186E0915020408040E1F74B
:1004A00000C0000018B89FDF80E092E0BCDFFF9141
:1004B000EF91BF91AF919F918F917F916F915F91DC
:1004C0004F913F912F910F900BBE0F900FBE0F9049
:1004D0001F9018951F920F920FB60F9211242F9311
:1004E0008F939F9383ED90E30197F1F700C0000095
:1004F0008FEF88B99FE32DE083E09150204080404A
:10050000E1F700C0000018B89F918F912F910F90D4
:100510000FBE0F901F9018958FEF80BB8093010145
:100520001AB881B984B99FE09093040180930701C0
:1005300087B978949DB393609DBBE9E6F0E0908124
:100540009A60908380930501109208011BB818B837
:100550003BDF82DE1DD083ED90E30197F1F700C011
:10056000000045D08CE092E05EDF1FBA60E172E0EF
:1005700085E090E0E4DD6CED75E081E090E0CADDBF
:1005800062E870E082E090E0C5DD62D084DEEDCF0D
:100590001092C50083E38093C40088E18093C1007A
:1005A00086E08093C20008959091C00095FFFCCF33
:1005B0008093C600089583E4F7DF8CE4F5DF83E5DC
:1005C000F3CF08950F931F93CF93DF938C01C0E077
:1005D000D0E002C0E9DF2196F801EC0FFD1F808119
:1005E0008111F8CFDF91CF911F910F9108950F9353
:1005F0001F93CF93DF93CDB7DEB7CC5AD1090FB697
:10060000F894DEBF0FBECDBF8CEAE5E1F2E0DE017B
:10061000119601900D928A95E1F700E010E003C079
:10062000C3DF0F5F1F4FE1E0F0E0EC0FFD1FE00FB5
:10063000F11F80818111F4CFC455DF4F0FB6F894BC
:10064000DEBF0FBECDBFDF91CF911F910F910895F7
:100650008091C0008823E4F78091C600823389F03E
:10066000853391F08133A9F42FEF89E698E1215089
:1006700080409040E1F700C000009DDF84E794DFF8
:10068000E7CF85E691DFE4CF85E090E082DD9ADF79
:0C069000DFCF85E589DFDCCFF894FFCFD9
:10069C00436172206174204761746500686579005C
:1006AC00706173730048656C6C6F210A0D0D0D43FE
:1006BC006F6D6D616E64730A0D0D312D456E747224
:1006CC00790A0D322D436865636B204F75740A0DE2
:1006DC00332D546F74616C2070656F706C650A0DEE
:1006EC00342D546F74616C206368696C6472656E30
:1006FC000A0D352D546F74616C206164756C7473C4
:10070C000A0D362D546F74616C20616D6F756E74AB
:10071C000A0D372D546F74616C20616D6F756E749A
:10072C0028667269646765290A0D382D546F7461E7
:10073C006C20616D6F756E7428656E7472616E637A
:10074C0065290A0D392D43617061636974790A0D4D
:02075C0000009B
:00000001FF
